{
  "transactions": [
    {
      "hash": "0xce73d4e6e78b41e095d70c05c0733cec6c7609ce50bdfc435f091e6be54f8687",
      "transactionType": "CALL",
      "contractName": null,
      "contractAddress": "0x135945c3e690397894224c20ed9a7a570a05fcaa",
      "function": "mintNFT(string)",
      "arguments": [
        "ifps://QmUPjADFGEKmfohdTaNcWhp7VGk26h5jXDA7v3VtTnTLcW"
      ],
      "transaction": {
        "from": "0x58e4d670dea0ad09d21ce4144e46c17d27bfaa53",
        "to": "0x135945c3e690397894224c20ed9a7a570a05fcaa",
        "gas": "0x392c3",
        "value": "0x0",
        "input": "0xfb37e88300000000000000000000000000000000000000000000000000000000000000200000000000000000000000000000000000000000000000000000000000000035696670733a2f2f516d55506a41444647454b6d666f686454614e635768703756476b323668356a5844413776335674546e544c63570000000000000000000000",
        "nonce": "0x29",
        "chainId": "0xaa36a7"
      },
      "additionalContracts": [],
      "isFixedGasLimit": false
    }
  ],
  "receipts": [
    {
      "status": "0x1",
      "cumulativeGasUsed": "0xb42e46",
      "logs": [
        {
          "address": "0x135945c3e690397894224c20ed9a7a570a05fcaa",
          "topics": [
            "0xddf252ad1be2c89b69c2b068fc378daa952ba7f163c4a11628f55a4df523b3ef",
            "0x0000000000000000000000000000000000000000000000000000000000000000",
            "0x00000000000000000000000058e4d670dea0ad09d21ce4144e46c17d27bfaa53",
            "0x0000000000000000000000000000000000000000000000000000000000000000"
          ],
          "data": "0x",
          "blockHash": "0xc7b2d846a9791066eb93ee5b823381fb2c548b0bd84f0946698f593bb2223d04",
          "blockNumber": "0x835285",
          "blockTimestamp": "0x685852e0",
          "transactionHash": "0xce73d4e6e78b41e095d70c05c0733cec6c7609ce50bdfc435f091e6be54f8687",
          "transactionIndex": "0x58",
          "logIndex": "0x52",
          "removed": false
        }
      ],
      "logsBloom": "0x00000000000000000000000000000000000000000000000000000000000000000000000000000000000000000000000000000000000000000000000000000000000000000000000000000008000000000000000000000000020000000010000000000000020000002000000000000800000000000002000000000010000000000000000000000000000000000000000000000000000000000000000000000000000000000000000000000000000000000000000000000000000000000000001000000002000000000000000000000000000000000000000000000000000020000004000000000000000000000000000000000000000000000000000000000000",
      "type": "0x2",
      "transactionHash": "0xce73d4e6e78b41e095d70c05c0733cec6c7609ce50bdfc435f091e6be54f8687",
      "transactionIndex": "0x58",
      "blockHash": "0xc7b2d846a9791066eb93ee5b823381fb2c548b0bd84f0946698f593bb2223d04",
      "blockNumber": "0x835285",
      "gasUsed": "0x2717b",
      "effectiveGasPrice": "0x11399e",
      "from": "0x58e4d670dea0ad09d21ce4144e46c17d27bfaa53",
      "to": "0x135945c3e690397894224c20ed9a7a570a05fcaa",
      "contractAddress": null
    }
  ],
  "libraries": [],
  "pending": [],
  "returns": {},
  "timestamp": 1750618849,
  "chain": 11155111,
  "commit": "7d2e1e6"
}